:020000040800F2
:10000000F0090020150200087508000871070008B3
:100010007108000811050008A3180008000000007E
:1000200000000000000000000000000005140008AF
:100030001505000800000000C10D00081915000892
:10004000C51800082F0200082F02000859110008E7
:100050002F0200082F020008190500084D050008AE
:1000600081050008B5050008E90500082F02000811
:100070002F0200082F0200082F0200082F0200089C
:100080002F0200082F0200082F0200082F0200088C
:100090002F0200082F0200082F0200082F0200087C
:1000A0002F0200082F0200082F0200082F0200086C
:1000B0002F0200087D1500082F0200082F020008FB
:1000C0002F0200082F0200082F0200082F0200084C
:1000D0002F020008811600082F0200082F020008D6
:1000E0002F0200082F0200082F0200082F0200082C
:1000F0002F0200082F0200082F0200082F0200081C
:100100002F0200082F020008AD1500082F0200087A
:100110002F0200082F0200082F0200082F020008FB
:100120002F0200082F0200082F0200082F020008EB
:1001300000F002F800F05FF80AA090E8000C82449A
:100140008344AAF10107DA4501D100F054F8AFF277
:10015000090EBAE80F0013F0010F18BFFB1A43F0A5
:100160000103184790230000B02300000A444FF019
:10017000000C10F8013B13F0070408BF10F8014B06
:100180001D1108BF10F8015B641E05D010F8016B4B
:10019000641E01F8016BF9D113F0080F1EBF10F8AF
:1001A000014BAD1C0C1B09D16D1E58BF01F801CBD2
:1001B000FAD505E014F8016B01F8016B6D1EF9D555
:1001C0009142D6D37047000000230024002500266A
:1001D000103A28BF78C1FBD8520728BF30C148BFAA
:1001E0000B607047642900F07780002070471FB5CE
:1001F0001FBD10B510BD00F037F91146FFF7F7FF2E
:1002000001F02CFC00F055F903B4FFF7F2FF03BC3A
:1002100001F0CCFB0948804709480047FEE7FEE7AC
:10022000FEE7FEE7FEE7FEE7FEE7FEE7FEE7FEE7A6
:1002300004480549054A064B704700001D15000893
:1002400031010008F0030020F0090020F005002033
:10025000F0050020704700000FB4044910B503AA50
:10026000029800F0D3F810BC5DF814FB18000020D1
:100270002DE9F0410E460446002020622046E16848
:10028000884730B3252805D0D4E901219047206A5A
:10029000401CF2E7E168204600278847050018D097
:1002A000A5F14100192802D820354FF400673246E5
:1002B000294620462760FFF795FF40B1012804D06A
:1002C000F61D26F007060836D8E7361DD6E728467D
:1002D000DAE7206ABDE8F0812DE9F0410646002406
:1002E00010687529314616A510D0AFF3008000289C
:1002F00002DA404213A507E031688A0701D512A54A
:1003000002E0490704D511A5012401E0AFF3008004
:1003100000210A2206F1240709E0B0FBF2FCB0FB41
:10032000F2F302FB1C00303078541846491C0028B8
:10033000F3D123462A463046BDE8F04100F00CB820
:10034000000000002D0000002B0000002000000035
:1003500070477047704770472DE9F0470D46994642
:100360009246044600F124080168880604D5E06935
:1003700021F01001216000E00120A84201DD471BAF
:1003800000E00027A1697A1902EB0900081AA061B0
:100390002078C00602D42046AFF30080002608E093
:1003A000D4E901211AF806009047206A401C761C07
:1003B00020624E45F4DB2078C0060AD52046AFF314
:1003C000008006E0D4E9012130209047206A401CDB
:1003D0002062381EA7F10107F4DC07E0D4E901210F
:1003E00018F805009047206A401C2062281EA5F1DD
:1003F0000105F3DC2046AFF300802078000602D52B
:100400000220BDE8F0870120FBE70000074B70B534
:100410000D467B4400F011F80446284600F020F811
:1004200010B14FF0FF3070BD204670BD2B1600009C
:1004300001694A1C02610878704700B58FB0CDE9A8
:1004400001310021059105497944CDE90310114698
:100450006846FFF70DFF0FB000BD0000E5FFFFFF8E
:10046000007B00F080007047754600F029F8AE462A
:1004700005006946534620F00700854618B020B5B0
:10048000FFF7D6FEBDE820404FF000064FF0000712
:100490004FF000084FF0000B21F00701AC46ACE82C
:1004A000C009ACE8C009ACE8C009ACE8C0098D4699
:1004B00070470446AFF300802046FFF7A5FE00001A
:1004C000004870479003002010B5012000F09AFC0E
:1004D000002000F097FC10BD08B5014600200090F8
:1004E000034800900098084400900098008808BDD8
:1004F000006C004008B500220092044A0092009A65
:1005000002440092009A116008BD0000006C004097
:1005100000BFFEE77047000010B50A2001F06AFA3C
:100520000121084800F017F9012807D106480068A2
:1005300008B9012000E0002003490860012000F014
:1005400079F810BD00080140A081214210B50A20B1
:1005500001F050FA0121084800F0FDF8012807D108
:100560000648006808B9012000E00020034908603F
:10057000012000F05FF810BD00080140A081214279
:1005800010B50A2001F036FA0421084800F0E3F81B
:1005900038B90748006808B9012000E00020044984
:1005A0000860042000F046F810BD0000001801406B
:1005B0009481214210B50A2001F01CFA0821084854
:1005C00000F0C9F838B90748006808B9012000E010
:1005D000002004490860082000F02CF810BD00003D
:1005E000001801409401234210B50A2001F002FADC
:1005F00010210C4800F0AFF880B90B48006808B92A
:10060000012000E00020084908600848D0F8940163
:1006100008B9012000E0002005490860102000F022
:1006200009F810BD001801409481214200002342C6
:1006300094012342014908607047000014040140FE
:100640002DE9F04102460025002600200023002469
:10065000002791F803C00CF00F0591F803C00CF0CF
:10066000100CBCF1000F03D091F802C04CEA050554
:1006700091F800C0BCF1000F31D0146800202BE0CD
:100680004FF0010C0CFA00F3B1F800C00CEA0306BD
:100690009E4220D183004FF00F0C0CFA03F7BC43AD
:1006A00005FA03FC4CEA040491F803C0BCF1280FDE
:1006B00006D14FF0010C0CFA00FCC2F814C00AE09D
:1006C00091F803C0BCF1480F05D14FF0010C0CFAB2
:1006D00000FCC2F810C0401C0828D1D31460B1F847
:1006E00000C0BCF1FF0F34DD546800202EE000F1A3
:1006F000080C4FF0010808FA0CF3B1F800C00CEA3E
:1007000003069E4221D183004FF00F0C0CFA03F731
:10071000BC4305FA03FC4CEA040491F803C0BCF1A5
:10072000280F05D100F1080C08FA0CF8C2F8148063
:1007300091F803C0BCF1480F07D100F1080C4FF04D
:10074000010808FA0CF8C2F81080401C0828CED323
:100750005460BDE8F0810246002093680B400BB165
:10076000012000E00020704741617047016170473F
:1007700000BFFEE710B54FF400510948FFF7F6FF40
:100780004FF480410648FFF7F1FF4FF480410448E1
:10079000FFF7EAFF4FF400510148FFF7E5FF10BDF6
:1007A000000C014010B54FF400510748FFF7DEFF81
:1007B0004FF480410448FFF7D7FF4FF480410248CF
:1007C000FFF7D4FF10BD0000000C014010B54FF43E
:1007D00000510448FFF7CAFF4FF400510148FFF7EA
:1007E000C3FF10BD000C01400146CA1701EB927215
:1007F0009210A1EB820292B9642091FBF0F200FB0F
:10080000121050B94FF4C87091FBF0F200FB1210B7
:1008100008B9012070470020FCE70120FAE700201A
:10082000F8E7000008B50121482000F0DBFA20209D
:10083000ADF8000010208DF8030003208DF80200B1
:1008400069460948FFF7FCFE20210748FFF78EFFA5
:100850002020ADF8000069460448FFF7F1FE202192
:100860000248FFF783FF08BD000C0140001801405B
:1008700000BFFEE77047000070B5002100230F2283
:10088000C47804B3154C246804F4E064C4F5E0644F
:10089000210AC1F10403CA40447804FA03F18478C0
:1008A0001440214309010E4C0678A155047804F048
:1008B0001F050124AC4005786D11AD0005F1E02560
:1008C000C5F8004109E0047804F01F050124AC409C
:1008D000044D0678761145F8264070BD0CED00E019
:1008E00000E400E080E100E002490143024A1160B7
:1008F000704700000000FA050CED00E070B50646F8
:10090000002418E004F1B000002100F046FA0021B4
:10091000084600F042FA0021102000F03EFA0025BF
:1009200005E00121304600F038FA681CC5B2802D80
:10093000F7DB601CC4B2082CE4DB70BD08B50121F4
:10094000082000F04FFA4FF4C040ADF8000010202E
:100950008DF8030003208DF8020069463B48FFF73D
:100960006FFE4FF4C0413948FFF700FFC82001F087
:1009700041F80021AE2000F010FA0021084600F0F6
:100980000CFA0021102000F008FA0021402000F0AD
:1009900004FA0021B02000F000FA0021812000F0CC
:1009A000FCF90021FF2000F0F8F90021A12000F05F
:1009B000F4F90021A62000F0F0F90021A82000F0B1
:1009C000ECF900213F2000F0E8F90021C82000F0F8
:1009D000E4F90021D32000F0E0F90021084600F0FE
:1009E000DCF90021D52000F0D8F90021802000F0AA
:1009F000D4F90021D82000F0D0F90021052000F022
:100A0000CCF90021D92000F0C8F90021F12000F034
:100A1000C4F90021DA2000F0C0F90021122000F012
:100A2000BCF90021DB2000F0B8F90021302000F0F3
:100A3000B4F900218D2000F0B0F90021142000F05D
:100A4000ACF90021AF2000F0A8F908BD000C01406E
:100A50002DE9F04781460E4615464FF0000AB9F1E0
:100A6000010F4CD1642C48DA00271EE0B02101EBC5
:100A70004501C819002100F090F90021084600F056
:100A80008CF90021102000F088F94FF0000807E0F1
:100A90000121504600F081F908F1010000F0FF0843
:100AA000B8F1800FF4DB781CC7B2022FDEDB6A06D8
:100AB000110E06FB04F23C32D0B2092200F086F897
:100AC0004FF4967000F096FF6A06110E06FB04F2D2
:100AD0003C32D0B2082200F079F84FF4967000F062
:100AE00089FF6A06110E06FB04F23C32D0B20922DD
:100AF00000F06CF8601CC4B252E0002450E0642C9A
:100B00004DDA00271EE0B02101EB4501C819002194
:100B100000F043F90021084600F03FF900211020C1
:100B200000F03BF94FF0000807E00121504600F0CB
:100B300034F908F1010000F0FF08B8F1800FF4DB90
:100B4000781CC7B2022FDEDB6A06110E06FB04F228
:100B5000C2F14402D0B2032200F038F86A06110E46
:100B600006FB04F2C2F15602D0B2042200F02EF8C5
:100B70006A06110E06FB04F2C2F16802D0B2052229
:100B800000F024F86A06110E06FB04F2C2F17A02A4
:100B9000D0B2062200F01AF8601CC4B200E00024B3
:100BA000BDE8F08770B504460D4605F1B0000021A0
:100BB00000F0F3F8102141EA1410002100F0EDF8E4
:100BC00004F00F00002100F0E8F870BD2DE9F041BD
:100BD00080460E461546002731464046FFF7E2FFA5
:100BE00000240AE0124A02EB8511085D012100F0A1
:100BF000D4F8781CC7B2601CC4B2102CF2DB701C95
:100C0000C1B24046FFF7CEFF00240CE06900491C4A
:100C1000074A02EB4111085D012100F0BEF8781C83
:100C2000C7B2601CC4B2102CF0DBBDE8F08100003C
:100C3000320000202DE9F04707460E4690469946BF
:100C400000250024A8F12000C5B27F2F02DD002777
:100C5000B01CC6B2B9F1100F24D131463846FFF7A7
:100C6000A1FF002408E004EB0511194A505C0121A2
:100C700000F093F8601CC4B2082CF4DB701CC1B205
:100C80003846FFF78FFF002409E004EB0511083117
:100C90000F4A505C012100F080F8601CC4B2082C9F
:100CA000F3DB12E031463846FFF77CFF00240AE010
:100CB00005EB4501074A02EB4101085D012100F007
:100CC0006CF8601CC4B2062CF2DBBDE8F0870000B3
:100CD000EC1E0008C41C00082DE9FF5F0746914682
:100CE0001E460E9D4FF0000A002435E0301B401ECA
:100CF000C1B20A2000F08AFFB9FBF0F00A21B0FB74
:100D0000F1F201FB1208BAF1000F14D1701EA042DB
:100D100011DDB8F1000F0CD1AB4605EBDB714910CA
:100D200001FB0471C8B22B4620220199FFF782FF14
:100D300010E04FF0010AAB4605EBDB71491001FBF7
:100D40000471C8B208F13001CAB22B460199FFF70D
:100D500071FF00BF601CC4B2B442C7DBBDE8FF9F97
:100D60002DE9F04104460F461546984600260FE04F
:100D7000AA5D434639462046FFF75CFF04F10800B0
:100D8000C4B2782C02DD0024B81CC7B2701CC6B2F5
:100D9000A85D0028ECD1BDE8F08170B504460D4691
:100DA0001DB1E0B200F0ECFD02E0E0B200F0D2FDD7
:100DB00070BD0000014908627047000000000E424B
:100DC0007047000029B1064AD2690243044BDA6138
:100DD00004E0034AD2698243014BDA6170470000A4
:100DE0000010024029B1064A92690243044B9A61FD
:100DF00004E0034A92698243014B9A617047000004
:100E0000001002400149086070470000400442425F
:100E100030B500210022002400232D4D6D6805F01F
:100E20000C0121B1042905D0082923D105E0294D61
:100E3000056022E0274D05601FE0254D6D6805F433
:100E40007012234D6D6805F48034022505EB924243
:100E50001CB9214D554305600BE01D4D6D6805F42F
:100E600000351DB11C4D5543056002E0194D554339
:100E7000056002E0174D056000BF00BF144D6D68AE
:100E800005F0F0010909154D6B5C0568DD40456012
:100E90000F4D6D6805F4E061090A104D6B5C456803
:100EA000DD4085600A4D6D6805F46051C90A0B4D3F
:100EB0006B5C4568DD40C560054D6D6805F44041DB
:100EC000890B074D6B5CC568B5FBF3F5056130BD5B
:100ED0000010024000127A0000093D001E000020B0
:100EE0002E00002010B501460022002300204A11E8
:100EF000012A02D1094C236806E0022A02D1074CDC
:100F0000236A01E0054C636A01F01F02012494404A
:100F10001C400CB1012000E0002010BD0010024078
:100F200000210B4A11700A4A203A82F82010012849
:100F300002D0042808D103E00121054A117004E021
:100F40000521034A117000E000BF00BF7047000098
:100F50002010024001490860704700003C044242F2
:100F60000249096A0143014A1162704700100240B8
:100F7000024909888143014A1180704704280040D2
:100F80000348008840F010000149088070470000C5
:100F900004280040034800884FF6EF7108400149DB
:100FA000088070470428004070B500260024002502
:100FB00000F07AF806463848B6FBF0F43748008867
:100FC000A0423CD035490C8040F2B27510E0284672
:100FD000FFF70AFC40B1B4F5B77F02D3A4F5B774AC
:100FE00004E0681C85B206E0A4F26D14681C85B2AA
:100FF000B4F5B67FEBD800BF29488580002516E000
:1010000027498888FFF7F0FB30B1012D04D11D2C52
:1010100001D31D3C09E00CE02248405DA04203D80A
:101020002048405D241A00E003E0681C85B21C2CB7
:10103000E6D200BF681C1A498871601CC871164846
:10104000B6FBF0F100FB11644FF46160B4FBF0F00B
:10105000134908704FF46160B4FBF0F100FB1140DC
:101060003C21B0FBF1F00E4948704FF46160B4FBD5
:10107000F0F100FB11403C21B0FBF1F201FB12004A
:10108000074988700B46DA799979988800F028F832
:1010900003490872002070BD80510100B802002091
:1010A00084030020E8240008002103480188001F71
:1010B000008841EA004070471C280040014600209B
:1010C000064A12880A40D0B2044A121F12880A4007
:1010D00012B108B1012000E0002070470428004050
:1010E000F0B503460C461546642093FBF0F0C6B2FB
:1010F000642093FBF0F700FB1730C1B2132E02DD22
:1011000001F16400C1B20846CF1701EB977701EBFC
:10111000A707BAB2072092FBF0F700FB172082B2B4
:101120005719601EDFF82CC01CF80000384482B24A
:10113000CF1701EB9777BF10A1EB87071FB9032CDF
:1011400001DA501E82B2072092FBF0F700FB172055
:10115000C0B2F0BDDC2400080EB50120FFF7AEFFE1
:1011600008B1FFF721FF0220FFF7A8FFA0B102207E
:10117000FFF7FEFEFFF718FF0A4880780949497813
:10118000084A1278CDE9002102900648C379827995
:10119000818805A0FFF760F80520FFF7E9FE00F061
:1011A00015F90EBD84030020416C61726D205469F5
:1011B0006D653A25642D25642D25642025643A2526
:1011C000643A25640A00000029B1064A12880243E5
:1011D000044B1A8004E0034A12888243014B1A80B0
:1011E00070470000002800401CB5002401214FF08A
:1011F000C050FFF7E7FD0120FFF7DCFD0420FFF7FB
:101200006BF945F25001884240D0FFF75DF90120AB
:10121000FFF786FE04E0601CC4B20A2000F0EAFB7F
:101220004120FFF75FFE08B9FA2CF4DBFA2C01DB52
:1012300001201CBD4FF48070FFF792FE0120FFF7E4
:1012400089FE00F0C3F800F0CBF801210846FFF753
:10125000BBFF00F0BBF8FFF793FE47F6FF7000F00E
:10126000A5F800F0B3F80020202114230B22CDE9CB
:10127000001003214FF4FD6000F026F8FFF78AFE0E
:1012800045F250010420FFF735F907E000F0A8F817
:1012900001210846FFF798FF00F098F800F004F8E5
:1012A000FFF782FE0020C4E708B503208DF8000098
:1012B00001208DF8030000208DF801008DF8020058
:1012C0006846FFF7D9FA08BD2DE9F05F06460F46DC
:1012D00090469946DDE90AAB002440F2B27086429E
:1012E00003DB40F63300864202DD0120BDE8F09FBB
:1012F00040F2B2750AE02846FFF776FA10B12048AE
:10130000044401E01F480444681C85B2B542F2DB86
:10131000781EC7B2002510E01B48405D40F2A321B3
:10132000484304EBC0143046FFF75EFA18B1012DB4
:1013300001D116480444681C85B2BD42ECDBA8F11B
:10134000010040F2A321484304EBC014C9EB49104B
:10135000C0EB092004EB0014CAEB0A1004EB800474
:101360005C4401214FF0C050FFF72CFD0120FFF736
:1013700021FD204600F00CF800F028F80020B5E729
:101380000085E2018033E101E8240008805101007A
:1013900000B50246FFF7F4FD100C03490880091D53
:1013A0000A80FFF7F7FD00BD1828004000B502468F
:1013B000FFF7E6FDC2F3034003490880091D0A80D8
:1013C000FFF7E8FD00BD00000828004000BF03480B
:1013D000008800F020000028F9D070470428004061
:1013E000074800884FF6F77108400549088000BF9C
:1013F0000348008800F008000028F9D0704700007A
:1014000004280040704710B500F002F810BD00003D
:101410000CB50020019000903348006840F4803003
:101420003149086000BF3048006800F40030009087
:101430000198401C0190009818B90198B0F5A06F70
:10144000F1D12948006800F4003010B1012000906B
:1014500001E0002000900098012843D12348006853
:1014600040F01000214908600846006820F00300A1
:1014700008600846006840F0020008601A484068AA
:10148000194948600846406848600846406840F48A
:10149000806048600846406820F47C104860084638
:1014A000406840F4E81048600846006840F08070EA
:1014B000086000BF0C48006800F000700028F9D0F8
:1014C0000948406820F00300074948600846406822
:1014D00040F00200486000BF0348406800F00C0084
:1014E0000828F9D10CBD0000001002400020024085
:1014F000042808D14FF0E021096941F004014FF0C0
:10150000E022116107E04FF0E021096921F00401B8
:101510004FF0E022116170477047000010B513488A
:10152000006840F001001149086008464068104911
:1015300008400E494860084600680E4908400B49BB
:1015400008600846006820F480200860084640686B
:1015500020F4FE0048604FF41F008860FFF753FF3F
:101560004FF000600449086010BD00000010024008
:101570000000FFF8FFFFF6FE08ED00E010B50121C6
:10158000084800F063F858B10121064800F058F807
:101590000548006808B9012000E000200249086001
:1015A00010BD0000000400409401234210B5214802
:1015B000007800F08000C0BB01211F4800F046F811
:1015C000D0B11C48007800F04000A8B1194800785C
:1015D00000F03F003F280AD11648007840F0800014
:1015E000144908704FF6FF701449088004E0114850
:1015F0000078401C0F49087002210F4800F026F8BF
:1016000098B10C48007800F0400070B109480078AB
:1016100040F0800007490870074800F014F80749B7
:1016200008800221044800F022F80321024800F05B
:1016300007F810BDB4020020000C0040B6020020E4
:10164000CA43028270470146888E704730B5024611
:10165000002000230024158A05EA0103958905EA84
:10166000010413B10CB1012000E0002030BD0A4696
:101670000021018C4FF6FD7319401143018470471E
:1016800010B540F225511D4800F04AF810B31B4830
:1016900000F002F9C4B21A48008800F40040C8B94A
:1016A0001748008800F4804060B10A2C03D0002065
:1016B0001349088020E01248008840F40040104997
:1016C000088019E00D2C06D10D48008840F48040B8
:1016D0000B49088010E00A480088C0F30D00094952
:1016E0000C5407480088401C0549088008460088BB
:1016F000C72801DD0020088010BD0000003801402F
:101700001C000020BC02002021B1828942F400525A
:10171000828104E082894DF6FF731A40828170470E
:1017200070B50246002400230025002040F66A160A
:10173000B14200D100BFC1F3421501F01F030126E1
:1017400006FA03F3012D02D19689334006E0022DFB
:1017500002D1168A334001E0968A33400C120126EA
:1017600006FA04F41688344013B10CB1012000E0ED
:10177000002070BDF0B5034600240026002500209F
:1017800040F66A17B94200D100BF1846C1F34214AF
:1017900001F01F06012707FA06F5012C01D10C30D4
:1017A00004E0022C01D1103000E014301AB10768B7
:1017B0002F43076002E00768AF430760F0BD0000F9
:1017C0002DE9F04786B005460E460024A24600BF2C
:1017D000A1460027B08900B100BF2F462C8A4CF6E5
:1017E000FF700440F08804432C82AC894EF6F3105D
:1017F0000440B08831890843718908430443AC81AF
:10180000AC8A4FF6FF400440B0890443AC8201A883
:10181000FFF7FEFA1F48874202D1DDF810A001E071
:10182000DDF80CA0A88900F4004040B10AEBCA0022
:1018300000EB0A1031684900B0FBF1F807E00AEB51
:10184000CA0000EB0A1031688900B0FBF1F864208F
:10185000B8FBF0F004012009642101FB1089A8897C
:1018600000F4004040B1322000EBC900B0FBF1F0C1
:1018700000F00700044308E0322000EB0910642167
:10188000B0FBF1F000F00F0004432C8106B0BDE87E
:10189000F08700000038014001468888C0F3080046
:1018A000704700BFFEE70000002001490860704754
:1018B000082C004040F08001014A11607047000090
:1018C000002C004010B50748007800F00FF8FFF733
:1018D000EBFF0548006808B9012000E0002002493C
:1018E000086010BDB20200209401234210B50446E6
:1018F0002046FFF7DFFF10BD2DE9F04105462C46DD
:101900004FF400511248FEF72FFF00261CE0274637
:1019100007F08007802F04D1F9010D48FEF726FF5C
:1019200004E04FF480410A48FEF71EFF6006040EF3
:101930004FF400510648FEF719FF4FF400510448D8
:10194000FEF712FF701CC6B2082EE0DBBDE8F08186
:10195000000C014010B50446FEF70CFF7820FFF79D
:10196000CBFFFEF733FF0020FFF7C6FFFEF72EFF89
:101970002046FFF7C1FFFEF729FFFEF713FF10BD5A
:1019800010B50446FEF7F6FE7820FFF7B5FFFEF728
:101990001DFF4020FFF7B0FFFEF718FF2046FFF7BE
:1019A000ABFFFEF713FFFEF7FDFE10BD00BF704753
:1019B00010B56FF00400FFF79BFD0A4800680A4964
:1019C000B0FBF1F0094908700846007800EB4001CF
:1019D000C1EBC0104FF6FF7101EAC0000449088056
:1019E00010BD00000000002000127A00140000204A
:1019F000160000200146114A12884A434FF0E023A6
:101A00005A6100229A611A46126942F001021A6173
:101A100000BF4FF0E022106900F001021AB100F49B
:101A20008032002AF5D04FF0E022126922F0010244
:101A30004FF0E0231A6100229A61704716000020DF
:101A400000BF054A128802F04002002AF9D0C2B253
:101A5000014B1B1D1A8070470038014008B5002457
:101A6000FFF7A6FF4FF4A060FEF73EFF4FF4E13012
:101A700000F0D8F8FEF7D6FEFEF760FF0020FEF774
:101A80003DFFFFF7B1FB002202212820FFF79EF85F
:101A9000012202214620FFF799F802221146702008
:101AA000FFF794F8102346A204211620FFF758F9F7
:101AB000102343A204213020FFF752F97FE0414870
:101AC0008078A04278D03F488478102000903D482C
:101AD0008288042302210620FFF7FEF810200090E0
:101AE00038488279022319463620FFF7F5F810208E
:101AF00000903448C279022319465620FFF7ECF8CB
:101B00003048007A072836D2DFE800F0040B1219BB
:101B100020272E0010232CA200211E20FFF720F9E1
:101B200029E010232AA200211E20FFF719F922E044
:101B3000102329A200211E20FFF712F91BE0102319
:101B400027A200211E20FFF70BF914E0102327A283
:101B500000211E20FFF704F90DE0102326A200212A
:101B60001E20FFF7FDF806E0102325A200211E200D
:101B7000FFF7F6F800BF00BF102000901148027870
:101B8000022304210620FFF7A7F8102000900D483B
:101B90004278022304211E20FFF79EF810200090B7
:101BA00008488278022304213820FFF795F80322A1
:101BB0000A210120FEF74CFF0A20FFF71BFF7EE7FA
:101BC0003A0000008403002073756E6461790000A0
:101BD0004D6F6E64617900005475657364617900BE
:101BE0005765646E657364617900000054687572AE
:101BF00073646179000000004672696461790000D5
:101C000053617475726461790000000010B502467A
:101C1000012000E050430B00A1F10104E1B2F9D131
:101C200010BD000010B586B00446012144F2040046
:101C3000FFF7D8F84FF40070ADF8140003208DF8CA
:101C4000160018208DF8170005A91C48FEF7F8FCAF
:101C50004FF48060ADF8140004208DF8170005A93A
:101C60001648FEF7EDFC25208DF8000003208DF8C6
:101C700001008DF8020001208DF803006846FEF790
:101C8000FBFD01940020ADF80800ADF80A00ADF8A6
:101C90000C00ADF810000C20ADF80E0001A90848AA
:101CA000FFF78EFD012240F225510548FFF762FD46
:101CB00001210348FFF728FD06B010BD00080140D0
:101CC000003801400000000000000000002F00006C
:101CD00000000700070000147F147F1400242A7FEF
:101CE0002A1200626408132300364955225000006E
:101CF0000503000000001C224100000041221C00DE
:101D00000014083E08140008083E0808000000A05F
:101D1000600000080808080800006060000000205B
:101D200010080402003E5149453E0000427F400039
:101D3000004261514946002141454B3100181412BF
:101D40007F10002745454539003C4A49493000018C
:101D50007109050300364949493600064949291EDB
:101D6000000036360000000056360000000814223D
:101D7000410000141414141400004122140800023D
:101D80000151090600324959513E007C1211127C62
:101D9000007F49494936003E41414122007F41418F
:101DA000221C007F49494941007F09090901003E81
:101DB0004149497A007F0808087F0000417F4100BF
:101DC000002040413F01007F08142241007F404035
:101DD0004040007F020C027F007F0408107F003E1D
:101DE0004141413E007F09090906003E4151215E03
:101DF000007F091929460046494949310001017F00
:101E00000101003F4040403F001F2040201F003F95
:101E10004038403F00631408146300070870080747
:101E200000615149454300007F41410000552A555A
:101E30002A55000041417F000004020102040040D5
:101E400040404040000001020400002054545478F7
:101E5000007F484444380038444444200038444417
:101E6000487F00385454541800087E0901020018B5
:101E7000A4A4A47C007F080404780000447D4000F2
:101E8000004080847D00007F102844000000417FD6
:101E90004000007C04180478007C080404780038B2
:101EA0004444443800FC242424180018242418FC3A
:101EB000007C0804040800485454542000043F44A3
:101EC0004020003C4040207C001C2040201C003C66
:101ED0004030403C004428102844001CA0A0A07CB6
:101EE000004464544C4414141414141400000000EE
:101EF000000000000000000000000000000000F8EA
:101F000000000000000000333000000000100C064C
:101F1000100C0600000000000000000040C07840E7
:101F2000C0784000043F04043F040400007088FCB3
:101F300008300000001820FF211E0000F008F0000B
:101F4000E018000000211C031E211E0000F008887C
:101F5000700000001E2123241927211010160E00E6
:101F6000000000000000000000000000000000E091
:101F700018040200000000071820400000020418A6
:101F8000E00000000040201807000000404080F002
:101F9000804040000202010F01020200000000F038
:101FA000000000000101011F01010100000000000C
:101FB0000000000080B07000000000000000000081
:101FC000000000000001010101010101000000000A
:101FD00000000000003030000000000000000000A1
:101FE00080601804006018060100000000E010087E
:101FF0000810E000000F102020100F00001010F853
:10200000000000000020203F202000000070080891
:102010000888700000302824222130000030088811
:10202000884830000018202020110E000000C02039
:1020300010F8000000070424243F240000F808885A
:10204000880808000019212020110E0000E01088E7
:1020500088180000000F112020110E000038080819
:10206000C83808000000003F000000000070880829
:1020700008887000001C222121221C0000E01008AA
:102080000810E0000000312222110F00000000C003
:10209000C0000000000000303000000000000080A0
:1020A0000000000000008060000000000000804090
:1020B00020100800000102040810200040404040A9
:1020C00040404000040404040404040000081020FC
:1020D0004080000000201008040201000070480841
:1020E0000808F0000000003036010000C030C828A9
:1020F000E810E0000718272423140B000000C03864
:10210000E0000000203C23020227382008F88888DD
:1021100088700000203F202020110E00C0300808E9
:1021200008083800071820202010080008F80808C0
:102130000810E000203F202020100F0008F88888B9
:10214000E8081000203F20202320180008F8888885
:10215000E8081000203F200003000000C0300808FD
:102160000838000007182020221E020008F8080086
:102170000008F808203F210101213F20000808F84D
:10218000080800000020203F202000000000080870
:10219000F8080800C08080807F00000008F888C030
:1021A00028180800203F20012638200008F80800E1
:1021B00000000000203F20202020300008F8F80018
:1021C000F8F80800203F003F003F200008F830C02A
:1021D0000008F808203F200007183F00E01008081A
:1021E0000810E0000F10202020100F0008F8080849
:1021F0000808F000203F210101010000E01008085C
:102200000810E0000F18242438504F0008F8888880
:1022100088887000203F2000030C30200070880860
:10222000080838000038202121221C00180808F86E
:10223000080818000000203F2000000008F80800EF
:102240000008F808001F202020201F0008788800C0
:1022500000C83808000007380E010000F80800F830
:102260000008F800033C0700073C030008186880DA
:102270008068180820302C03032C30200838C80050
:10228000C83808000000203F20000000100808089F
:10229000C83808002038262120201800000000FE41
:1022A000020202000000007F40404000000C30C0ED
:1022B00000000000000000010638C0000002020219
:1022C000FE000000004040407F00000000000402CB
:1022D00002020400000000000000000000000000F6
:1022E00000000000808080808080808000020204E6
:1022F00000000000000000000000000000008080DE
:10230000808000000019242222223F2008F800804B
:1023100080000000003F112020110E00000000800E
:1023200080800000000E112020201100000000809D
:102330008088F800000E112020103F2000008080CF
:1023400080800000001F222222221300008080F0E3
:10235000888888180020203F20200000000080800E
:1023600080808000006B94949493600008F8008053
:1023700080800000203F210000203F2000809898AE
:10238000000000000020203F20200000000000800E
:102390009898000000C08080807F000008F800004E
:1023A00080808000203F24022D302000000808F8A3
:1023B000000000000020203F20200000808080805E
:1023C00080808000203F20003F20003F80800080F0
:1023D00080800000203F210000203F2000008080FE
:1023E00080800000001F202020201F0080800080AF
:1023F0008000000080FFA12020110E00000000805E
:1024000080808000000E112020A0FF80808080004E
:102410008080800020203F2120000100000080807B
:10242000808080000033242424241900008080E070
:10243000808000000000001F20200000808000003D
:1024400000808000001F202020103F20808080001E
:102450000080808000010E3008060100808000802E
:10246000008080800F300C030C300F000080800053
:10247000808080000020312E0E312000808080007E
:102480000080808080818E7018060100008080802E
:10249000808080000021302C2221300000000000CC
:1024A000807C020200000000003F4040000000006D
:1024B000FF00000000000000FF0000000002027C9E
:1024C000800000000040403F0000000000060101C5
:1024D00002020404000000000000000000030306E4
:1024E00001040602050003051F1C1F1E1F1E1F1FDF
:1024F0001E1F1E1F1425000800000020BC02000043
:102500006C01000838260008BC02002034070000D7
:10251000C80100081184A24A04E00901020304066C
:102520000708092916691A15020406081D2018C78C
:1025300044012AFC05793CA11D04040407042B0472
:10254000FF050A110421215BFE22010213FE3E80D9
:1025500040300F0201041642827F4BFE82010912B5
:102560003F414BFF40010214FF081011202024249A
:10257000A47F2424247FA424242020C016221940D0
:10258000807F0E120830040932C01C02EAAA012A18
:10259000AF050B11EA021F2E02FA4A4B4A010D1138
:1025A0004B4AFA022111080D12181610D0B8979054
:1025B0009090929410A1080E11108C8380414628AF
:1025C000102844438080FE1502FA02FE1E101010EF
:1025D000D0FF050111178047300F10671C08044316
:1025E000C501151808F88C0404041C7C050315BCEF
:1025F000E0000B170103061C10180C0603011C3821
:10260000BEFF010C12FE7A3AC011000D168CCEEFFF
:10261000FF3F1F1F3FFFFFDF9E2C7078FE0106105B
:10262000FCF4FF7F3F1D0CDE6FF75D1A7F01061083
:082630003F3F38383E89D50018
:0400000508000215D8
:00000001FF
